{
  "contractName": "FLyToken",
  "abi": [
    {
      "inputs": [],
      "stateMutability": "nonpayable",
      "type": "constructor"
    },
    {
      "anonymous": false,
      "inputs": [
        {
          "indexed": true,
          "internalType": "address",
          "name": "owner",
          "type": "address"
        },
        {
          "indexed": true,
          "internalType": "address",
          "name": "spender",
          "type": "address"
        },
        {
          "indexed": false,
          "internalType": "uint256",
          "name": "value",
          "type": "uint256"
        }
      ],
      "name": "Approval",
      "type": "event"
    },
    {
      "anonymous": false,
      "inputs": [
        {
          "indexed": true,
          "internalType": "address",
          "name": "_of",
          "type": "address"
        },
        {
          "indexed": true,
          "internalType": "bytes32",
          "name": "_reason",
          "type": "bytes32"
        },
        {
          "indexed": false,
          "internalType": "uint256",
          "name": "_amount",
          "type": "uint256"
        },
        {
          "indexed": false,
          "internalType": "uint256",
          "name": "_validity",
          "type": "uint256"
        }
      ],
      "name": "Locked",
      "type": "event"
    },
    {
      "anonymous": false,
      "inputs": [
        {
          "indexed": true,
          "internalType": "address",
          "name": "previousOwner",
          "type": "address"
        },
        {
          "indexed": true,
          "internalType": "address",
          "name": "newOwner",
          "type": "address"
        }
      ],
      "name": "OwnershipTransferred",
      "type": "event"
    },
    {
      "anonymous": false,
      "inputs": [
        {
          "indexed": true,
          "internalType": "address",
          "name": "from",
          "type": "address"
        },
        {
          "indexed": true,
          "internalType": "address",
          "name": "to",
          "type": "address"
        },
        {
          "indexed": false,
          "internalType": "uint256",
          "name": "value",
          "type": "uint256"
        }
      ],
      "name": "Transfer",
      "type": "event"
    },
    {
      "anonymous": false,
      "inputs": [
        {
          "indexed": true,
          "internalType": "address",
          "name": "_of",
          "type": "address"
        },
        {
          "indexed": true,
          "internalType": "bytes32",
          "name": "_reason",
          "type": "bytes32"
        },
        {
          "indexed": false,
          "internalType": "uint256",
          "name": "_amount",
          "type": "uint256"
        }
      ],
      "name": "Unlocked",
      "type": "event"
    },
    {
      "inputs": [
        {
          "internalType": "address",
          "name": "owner",
          "type": "address"
        },
        {
          "internalType": "address",
          "name": "spender",
          "type": "address"
        }
      ],
      "name": "allowance",
      "outputs": [
        {
          "internalType": "uint256",
          "name": "",
          "type": "uint256"
        }
      ],
      "stateMutability": "view",
      "type": "function",
      "constant": true
    },
    {
      "inputs": [
        {
          "internalType": "address",
          "name": "spender",
          "type": "address"
        },
        {
          "internalType": "uint256",
          "name": "amount",
          "type": "uint256"
        }
      ],
      "name": "approve",
      "outputs": [
        {
          "internalType": "bool",
          "name": "",
          "type": "bool"
        }
      ],
      "stateMutability": "nonpayable",
      "type": "function"
    },
    {
      "inputs": [
        {
          "internalType": "address",
          "name": "account",
          "type": "address"
        }
      ],
      "name": "balanceOf",
      "outputs": [
        {
          "internalType": "uint256",
          "name": "",
          "type": "uint256"
        }
      ],
      "stateMutability": "view",
      "type": "function",
      "constant": true
    },
    {
      "inputs": [
        {
          "internalType": "uint256",
          "name": "amount",
          "type": "uint256"
        }
      ],
      "name": "burn",
      "outputs": [],
      "stateMutability": "nonpayable",
      "type": "function"
    },
    {
      "inputs": [
        {
          "internalType": "address",
          "name": "account",
          "type": "address"
        },
        {
          "internalType": "uint256",
          "name": "amount",
          "type": "uint256"
        }
      ],
      "name": "burnFrom",
      "outputs": [],
      "stateMutability": "nonpayable",
      "type": "function"
    },
    {
      "inputs": [],
      "name": "decimals",
      "outputs": [
        {
          "internalType": "uint8",
          "name": "",
          "type": "uint8"
        }
      ],
      "stateMutability": "view",
      "type": "function",
      "constant": true
    },
    {
      "inputs": [
        {
          "internalType": "address",
          "name": "spender",
          "type": "address"
        },
        {
          "internalType": "uint256",
          "name": "subtractedValue",
          "type": "uint256"
        }
      ],
      "name": "decreaseAllowance",
      "outputs": [
        {
          "internalType": "bool",
          "name": "",
          "type": "bool"
        }
      ],
      "stateMutability": "nonpayable",
      "type": "function"
    },
    {
      "inputs": [
        {
          "internalType": "bytes32",
          "name": "_reason",
          "type": "bytes32"
        },
        {
          "internalType": "uint256",
          "name": "_time",
          "type": "uint256"
        }
      ],
      "name": "extendLock",
      "outputs": [
        {
          "internalType": "bool",
          "name": "",
          "type": "bool"
        }
      ],
      "stateMutability": "nonpayable",
      "type": "function"
    },
    {
      "inputs": [
        {
          "internalType": "address",
          "name": "_of",
          "type": "address"
        }
      ],
      "name": "getUnlockableTokens",
      "outputs": [
        {
          "internalType": "uint256",
          "name": "unlockableTokens",
          "type": "uint256"
        }
      ],
      "stateMutability": "view",
      "type": "function",
      "constant": true
    },
    {
      "inputs": [
        {
          "internalType": "address",
          "name": "spender",
          "type": "address"
        },
        {
          "internalType": "uint256",
          "name": "addedValue",
          "type": "uint256"
        }
      ],
      "name": "increaseAllowance",
      "outputs": [
        {
          "internalType": "bool",
          "name": "",
          "type": "bool"
        }
      ],
      "stateMutability": "nonpayable",
      "type": "function"
    },
    {
      "inputs": [
        {
          "internalType": "bytes32",
          "name": "_reason",
          "type": "bytes32"
        },
        {
          "internalType": "uint256",
          "name": "_amount",
          "type": "uint256"
        }
      ],
      "name": "increaseLockAmount",
      "outputs": [
        {
          "internalType": "bool",
          "name": "",
          "type": "bool"
        }
      ],
      "stateMutability": "nonpayable",
      "type": "function"
    },
    {
      "inputs": [
        {
          "internalType": "bytes32",
          "name": "_reason",
          "type": "bytes32"
        },
        {
          "internalType": "uint256",
          "name": "_amount",
          "type": "uint256"
        },
        {
          "internalType": "uint256",
          "name": "_time",
          "type": "uint256"
        }
      ],
      "name": "lock",
      "outputs": [
        {
          "internalType": "bool",
          "name": "",
          "type": "bool"
        }
      ],
      "stateMutability": "nonpayable",
      "type": "function"
    },
    {
      "inputs": [
        {
          "internalType": "address",
          "name": "",
          "type": "address"
        },
        {
          "internalType": "uint256",
          "name": "",
          "type": "uint256"
        }
      ],
      "name": "lockReason",
      "outputs": [
        {
          "internalType": "bytes32",
          "name": "",
          "type": "bytes32"
        }
      ],
      "stateMutability": "view",
      "type": "function",
      "constant": true
    },
    {
      "inputs": [
        {
          "internalType": "address",
          "name": "",
          "type": "address"
        },
        {
          "internalType": "bytes32",
          "name": "",
          "type": "bytes32"
        }
      ],
      "name": "locked",
      "outputs": [
        {
          "internalType": "uint256",
          "name": "amount",
          "type": "uint256"
        },
        {
          "internalType": "uint256",
          "name": "validity",
          "type": "uint256"
        },
        {
          "internalType": "bool",
          "name": "claimed",
          "type": "bool"
        }
      ],
      "stateMutability": "view",
      "type": "function",
      "constant": true
    },
    {
      "inputs": [],
      "name": "name",
      "outputs": [
        {
          "internalType": "string",
          "name": "",
          "type": "string"
        }
      ],
      "stateMutability": "view",
      "type": "function",
      "constant": true
    },
    {
      "inputs": [],
      "name": "owner",
      "outputs": [
        {
          "internalType": "address",
          "name": "",
          "type": "address"
        }
      ],
      "stateMutability": "view",
      "type": "function",
      "constant": true
    },
    {
      "inputs": [],
      "name": "renounceOwnership",
      "outputs": [],
      "stateMutability": "nonpayable",
      "type": "function"
    },
    {
      "inputs": [],
      "name": "symbol",
      "outputs": [
        {
          "internalType": "string",
          "name": "",
          "type": "string"
        }
      ],
      "stateMutability": "view",
      "type": "function",
      "constant": true
    },
    {
      "inputs": [
        {
          "internalType": "address",
          "name": "_of",
          "type": "address"
        },
        {
          "internalType": "bytes32",
          "name": "_reason",
          "type": "bytes32"
        }
      ],
      "name": "tokensLocked",
      "outputs": [
        {
          "internalType": "uint256",
          "name": "amount",
          "type": "uint256"
        }
      ],
      "stateMutability": "view",
      "type": "function",
      "constant": true
    },
    {
      "inputs": [
        {
          "internalType": "address",
          "name": "_of",
          "type": "address"
        },
        {
          "internalType": "bytes32",
          "name": "_reason",
          "type": "bytes32"
        },
        {
          "internalType": "uint256",
          "name": "_time",
          "type": "uint256"
        }
      ],
      "name": "tokensLockedAtTime",
      "outputs": [
        {
          "internalType": "uint256",
          "name": "amount",
          "type": "uint256"
        }
      ],
      "stateMutability": "view",
      "type": "function",
      "constant": true
    },
    {
      "inputs": [
        {
          "internalType": "address",
          "name": "_of",
          "type": "address"
        },
        {
          "internalType": "bytes32",
          "name": "_reason",
          "type": "bytes32"
        }
      ],
      "name": "tokensUnlockable",
      "outputs": [
        {
          "internalType": "uint256",
          "name": "amount",
          "type": "uint256"
        }
      ],
      "stateMutability": "view",
      "type": "function",
      "constant": true
    },
    {
      "inputs": [
        {
          "internalType": "address",
          "name": "_of",
          "type": "address"
        }
      ],
      "name": "totalBalanceOf",
      "outputs": [
        {
          "internalType": "uint256",
          "name": "amount",
          "type": "uint256"
        }
      ],
      "stateMutability": "view",
      "type": "function",
      "constant": true
    },
    {
      "inputs": [],
      "name": "totalSupply",
      "outputs": [
        {
          "internalType": "uint256",
          "name": "",
          "type": "uint256"
        }
      ],
      "stateMutability": "view",
      "type": "function",
      "constant": true
    },
    {
      "inputs": [
        {
          "internalType": "address",
          "name": "recipient",
          "type": "address"
        },
        {
          "internalType": "uint256",
          "name": "amount",
          "type": "uint256"
        }
      ],
      "name": "transfer",
      "outputs": [
        {
          "internalType": "bool",
          "name": "",
          "type": "bool"
        }
      ],
      "stateMutability": "nonpayable",
      "type": "function"
    },
    {
      "inputs": [
        {
          "internalType": "address",
          "name": "sender",
          "type": "address"
        },
        {
          "internalType": "address",
          "name": "recipient",
          "type": "address"
        },
        {
          "internalType": "uint256",
          "name": "amount",
          "type": "uint256"
        }
      ],
      "name": "transferFrom",
      "outputs": [
        {
          "internalType": "bool",
          "name": "",
          "type": "bool"
        }
      ],
      "stateMutability": "nonpayable",
      "type": "function"
    },
    {
      "inputs": [
        {
          "internalType": "address",
          "name": "newOwner",
          "type": "address"
        }
      ],
      "name": "transferOwnership",
      "outputs": [],
      "stateMutability": "nonpayable",
      "type": "function"
    },
    {
      "inputs": [
        {
          "internalType": "address",
          "name": "_to",
          "type": "address"
        },
        {
          "internalType": "bytes32",
          "name": "_reason",
          "type": "bytes32"
        },
        {
          "internalType": "uint256",
          "name": "_amount",
          "type": "uint256"
        },
        {
          "internalType": "uint256",
          "name": "_time",
          "type": "uint256"
        }
      ],
      "name": "transferWithLock",
      "outputs": [
        {
          "internalType": "bool",
          "name": "",
          "type": "bool"
        }
      ],
      "stateMutability": "nonpayable",
      "type": "function"
    },
    {
      "inputs": [
        {
          "internalType": "address",
          "name": "_of",
          "type": "address"
        }
      ],
      "name": "unlock",
      "outputs": [
        {
          "internalType": "uint256",
          "name": "unlockableTokens",
          "type": "uint256"
        }
      ],
      "stateMutability": "nonpayable",
      "type": "function"
    },
    {
      "inputs": [],
      "name": "initializeRound1",
      "outputs": [],
      "stateMutability": "nonpayable",
      "type": "function"
    },
    {
      "inputs": [],
      "name": "initializeRound2",
      "outputs": [],
      "stateMutability": "nonpayable",
      "type": "function"
    }
  ],
  "bytecode": "0x60806040523480156200001157600080fd5b50650f78d8b172806040518060400160405280600881526020017f4672616e6b6c696e0000000000000000000000000000000000000000000000008152506040518060400160405280600381526020017f464c790000000000000000000000000000000000000000000000000000000000815250600482828160059080519060200190620000a1929190620008da565b508060069080519060200190620000ba929190620008da565b506012600760006101000a81548160ff021916908360ff1602179055505050620000ea81620001c660201b60201c565b6200010b620000fe620001e460201b60201c565b85620001ec60201b60201c565b50505050600062000121620001e460201b60201c565b905080600760016101000a81548173ffffffffffffffffffffffffffffffffffffffff021916908373ffffffffffffffffffffffffffffffffffffffff1602179055508073ffffffffffffffffffffffffffffffffffffffff16600073ffffffffffffffffffffffffffffffffffffffff167f8be0079c531659141344cd1fd0a4f28419497f9722a3daafe3b4186f6b6457e060405160405180910390a35062000989565b80600760006101000a81548160ff021916908360ff16021790555050565b600033905090565b600073ffffffffffffffffffffffffffffffffffffffff168273ffffffffffffffffffffffffffffffffffffffff16141562000290576040517f08c379a000000000000000000000000000000000000000000000000000000000815260040180806020018281038252601f8152602001807f45524332303a206d696e7420746f20746865207a65726f20616464726573730081525060200191505060405180910390fd5b620002a460008383620003cc60201b60201c565b620002c081600454620003fb60201b620043131790919060201c565b6004819055506200031f81600260008573ffffffffffffffffffffffffffffffffffffffff1673ffffffffffffffffffffffffffffffffffffffff16815260200190815260200160002054620003fb60201b620043131790919060201c565b600260008473ffffffffffffffffffffffffffffffffffffffff1673ffffffffffffffffffffffffffffffffffffffff168152602001908152602001600020819055508173ffffffffffffffffffffffffffffffffffffffff16600073ffffffffffffffffffffffffffffffffffffffff167fddf252ad1be2c89b69c2b068fc378daa952ba7f163c4a11628f55a4df523b3ef836040518082815260200191505060405180910390a35050565b620003e48383836200048460201b620057b81760201c565b620003f5836200048960201b60201c565b50505050565b6000808284019050838110156200047a576040517f08c379a000000000000000000000000000000000000000000000000000000000815260040180806020018281038252601b8152602001807f536166654d6174683a206164646974696f6e206f766572666c6f77000000000081525060200191505060405180910390fd5b8091505092915050565b505050565b60008060008090505b6000808573ffffffffffffffffffffffffffffffffffffffff1673ffffffffffffffffffffffffffffffffffffffff16815260200190815260200160002080549050811015620006db5762000542846000808773ffffffffffffffffffffffffffffffffffffffff1673ffffffffffffffffffffffffffffffffffffffff16815260200190815260200160002083815481106200052b57fe5b9060005260206000200154620007b360201b60201c565b91506000821115620006cd57620005688284620003fb60201b620043131790919060201c565b925060018060008673ffffffffffffffffffffffffffffffffffffffff1673ffffffffffffffffffffffffffffffffffffffff16815260200190815260200160002060008060008873ffffffffffffffffffffffffffffffffffffffff1673ffffffffffffffffffffffffffffffffffffffff1681526020019081526020016000208481548110620005f657fe5b9060005260206000200154815260200190815260200160002060020160006101000a81548160ff0219169083151502179055506000808573ffffffffffffffffffffffffffffffffffffffff1673ffffffffffffffffffffffffffffffffffffffff16815260200190815260200160002081815481106200067357fe5b90600052602060002001548473ffffffffffffffffffffffffffffffffffffffff167f11f87fd5adcd05786919b8b868f59a70d78ae4eb6f305c5927f9c5b1659841a4846040518082815260200191505060405180910390a35b808060010191505062000492565b506000821115620007ad573073ffffffffffffffffffffffffffffffffffffffff1663a9059cbb84846040518363ffffffff1660e01b8152600401808373ffffffffffffffffffffffffffffffffffffffff1673ffffffffffffffffffffffffffffffffffffffff16815260200182815260200192505050602060405180830381600087803b1580156200076e57600080fd5b505af115801562000783573d6000803e3d6000fd5b505050506040513d60208110156200079a57600080fd5b8101908080519060200190929190505050505b50919050565b600042600160008573ffffffffffffffffffffffffffffffffffffffff1673ffffffffffffffffffffffffffffffffffffffff16815260200190815260200160002060008481526020019081526020016000206001015411158015620008775750600160008473ffffffffffffffffffffffffffffffffffffffff1673ffffffffffffffffffffffffffffffffffffffff168152602001908152602001600020600083815260200190815260200160002060020160009054906101000a900460ff16155b15620008d457600160008473ffffffffffffffffffffffffffffffffffffffff1673ffffffffffffffffffffffffffffffffffffffff16815260200190815260200160002060008381526020019081526020016000206000015490505b92915050565b828054600181600116156101000203166002900490600052602060002090601f016020900481019282601f106200091d57805160ff19168380011785556200094e565b828001600101855582156200094e579182015b828111156200094d57825182559160200191906001019062000930565b5b5090506200095d919062000961565b5090565b6200098691905b808211156200098257600081600090555060010162000968565b5090565b90565b6159fe80620009996000396000f3fe608060405234801561001057600080fd5b50600436106101da5760003560e01c80635ca48d8c1161010457806395d89b41116100a2578063ab4a2eb311610071578063ab4a2eb314610a37578063d71be8db14610a8f578063dd62ed3e14610b03578063f2fde38b14610b7b576101da565b806395d89b4114610898578063a457c2d71461091b578063a9059cbb14610981578063a9dab167146109e7576101da565b806371d66f00116100de57806371d66f001461074e57806379cc6790146107b057806381fc4d90146107fe5780638da5cb5b1461084e576101da565b80635ca48d8c1461068a57806370a08231146106ec578063715018a614610744576101da565b80632f6c493c1161017c5780634b0ee02a1161014b5780634b0ee02a1461054c5780634cb5465f146105a457806351a788ff1461061e5780635294d0e814610628576101da565b80632f6c493c1461043c578063313ce5671461049457806339509351146104b857806342966c681461051e576101da565b8063179e91f1116101b8578063179e91f1146102d257806318160ddd1461033e57806323b872dd1461035c5780632e82aaf2146103e2576101da565b80630424d150146101df57806306fdde03146101e9578063095ea7b31461026c575b600080fd5b6101e7610bbf565b005b6101f1610d85565b6040518080602001828103825283818151815260200191508051906020019080838360005b83811015610231578082015181840152602081019050610216565b50505050905090810190601f16801561025e5780820380516001836020036101000a031916815260200191505b509250505060405180910390f35b6102b86004803603604081101561028257600080fd5b81019080803573ffffffffffffffffffffffffffffffffffffffff16906020019092919080359060200190929190505050610e27565b604051808215151515815260200191505060405180910390f35b610328600480360360608110156102e857600080fd5b81019080803573ffffffffffffffffffffffffffffffffffffffff1690602001909291908035906020019092919080359060200190929190505050610e45565b6040518082815260200191505060405180910390f35b610346610f00565b6040518082815260200191505060405180910390f35b6103c86004803603606081101561037257600080fd5b81019080803573ffffffffffffffffffffffffffffffffffffffff169060200190929190803573ffffffffffffffffffffffffffffffffffffffff16906020019092919080359060200190929190505050610f0a565b604051808215151515815260200191505060405180910390f35b610422600480360360608110156103f857600080fd5b81019080803590602001909291908035906020019092919080359060200190929190505050610fe3565b604051808215151515815260200191505060405180910390f35b61047e6004803603602081101561045257600080fd5b81019080803573ffffffffffffffffffffffffffffffffffffffff1690602001909291905050506113bf565b6040518082815260200191505060405180910390f35b61049c6116d0565b604051808260ff1660ff16815260200191505060405180910390f35b610504600480360360408110156104ce57600080fd5b81019080803573ffffffffffffffffffffffffffffffffffffffff169060200190929190803590602001909291905050506116e7565b604051808215151515815260200191505060405180910390f35b61054a6004803603602081101561053457600080fd5b810190808035906020019092919050505061179a565b005b61058e6004803603602081101561056257600080fd5b81019080803573ffffffffffffffffffffffffffffffffffffffff1690602001909291905050506117ae565b6040518082815260200191505060405180910390f35b610604600480360360808110156105ba57600080fd5b81019080803573ffffffffffffffffffffffffffffffffffffffff16906020019092919080359060200190929190803590602001909291908035906020019092919050505061188e565b604051808215151515815260200191505060405180910390f35b610626611c48565b005b6106746004803603604081101561063e57600080fd5b81019080803573ffffffffffffffffffffffffffffffffffffffff16906020019092919080359060200190929190505050611e0e565b6040518082815260200191505060405180910390f35b6106d6600480360360408110156106a057600080fd5b81019080803573ffffffffffffffffffffffffffffffffffffffff16906020019092919080359060200190929190505050611f33565b6040518082815260200191505060405180910390f35b61072e6004803603602081101561070257600080fd5b81019080803573ffffffffffffffffffffffffffffffffffffffff169060200190929190505050611ff7565b6040518082815260200191505060405180910390f35b61074c612040565b005b61079a6004803603604081101561076457600080fd5b81019080803573ffffffffffffffffffffffffffffffffffffffff169060200190929190803590602001909291905050506121cb565b6040518082815260200191505060405180910390f35b6107fc600480360360408110156107c657600080fd5b81019080803573ffffffffffffffffffffffffffffffffffffffff169060200190929190803590602001909291905050506121f9565b005b6108346004803603604081101561081457600080fd5b81019080803590602001909291908035906020019092919050505061225b565b604051808215151515815260200191505060405180910390f35b61085661253f565b604051808273ffffffffffffffffffffffffffffffffffffffff1673ffffffffffffffffffffffffffffffffffffffff16815260200191505060405180910390f35b6108a0612569565b6040518080602001828103825283818151815260200191508051906020019080838360005b838110156108e05780820151818401526020810190506108c5565b50505050905090810190601f16801561090d5780820380516001836020036101000a031916815260200191505b509250505060405180910390f35b6109676004803603604081101561093157600080fd5b81019080803573ffffffffffffffffffffffffffffffffffffffff1690602001909291908035906020019092919050505061260b565b604051808215151515815260200191505060405180910390f35b6109cd6004803603604081101561099757600080fd5b81019080803573ffffffffffffffffffffffffffffffffffffffff169060200190929190803590602001909291905050506126d8565b604051808215151515815260200191505060405180910390f35b610a1d600480360360408110156109fd57600080fd5b8101908080359060200190929190803590602001909291905050506126f6565b604051808215151515815260200191505060405180910390f35b610a7960048036036020811015610a4d57600080fd5b81019080803573ffffffffffffffffffffffffffffffffffffffff1690602001909291905050506129cf565b6040518082815260200191505060405180910390f35b610adb60048036036040811015610aa557600080fd5b81019080803573ffffffffffffffffffffffffffffffffffffffff16906020019092919080359060200190929190505050612aa4565b6040518084815260200183815260200182151515158152602001935050505060405180910390f35b610b6560048036036040811015610b1957600080fd5b81019080803573ffffffffffffffffffffffffffffffffffffffff169060200190929190803573ffffffffffffffffffffffffffffffffffffffff169060200190929190505050612ae8565b6040518082815260200191505060405180910390f35b610bbd60048036036020811015610b9157600080fd5b81019080803573ffffffffffffffffffffffffffffffffffffffff169060200190929190505050612b6f565b005b600760189054906101000a900460ff1680610be75750600760179054906101000a900460ff16155b610c3c576040517f08c379a000000000000000000000000000000000000000000000000000000000815260040180806020018281038252602e815260200180615976602e913960400191505060405180910390fd5b6000600760189054906101000a900460ff161590508015610c8e576001600760186101000a81548160ff0219169083151502179055506001600760176101000a81548160ff0219169083151502179055505b610c96612d7f565b73ffffffffffffffffffffffffffffffffffffffff16600760019054906101000a900473ffffffffffffffffffffffffffffffffffffffff1673ffffffffffffffffffffffffffffffffffffffff1614610d58576040517f08c379a00000000000000000000000000000000000000000000000000000000081526004018080602001828103825260208152602001807f4f776e61626c653a2063616c6c6572206973206e6f7420746865206f776e657281525060200191505060405180910390fd5b610d60612d87565b8015610d82576000600760186101000a81548160ff0219169083151502179055505b50565b606060058054600181600116156101000203166002900480601f016020809104026020016040519081016040528092919081815260200182805460018160011615610100020316600290048015610e1d5780601f10610df257610100808354040283529160200191610e1d565b820191906000526020600020905b815481529060010190602001808311610e0057829003601f168201915b5050505050905090565b6000610e3b610e34612d7f565b8484613d97565b6001905092915050565b600081600160008673ffffffffffffffffffffffffffffffffffffffff1673ffffffffffffffffffffffffffffffffffffffff1681526020019081526020016000206000858152602001908152602001600020600101541115610ef957600160008573ffffffffffffffffffffffffffffffffffffffff1673ffffffffffffffffffffffffffffffffffffffff16815260200190815260200160002060008481526020019081526020016000206000015490505b9392505050565b6000600454905090565b6000610f17848484613f8e565b610fd884610f23612d7f565b610fd3856040518060600160405280602881526020016158c060289139600360008b73ffffffffffffffffffffffffffffffffffffffff1673ffffffffffffffffffffffffffffffffffffffff1681526020019081526020016000206000610f89612d7f565b73ffffffffffffffffffffffffffffffffffffffff1673ffffffffffffffffffffffffffffffffffffffff168152602001908152602001600020546142539092919063ffffffff16565b613d97565b600190509392505050565b600080610ff9834261431390919063ffffffff16565b9050600061100e611008612d7f565b87611f33565b146040518060400160405280601581526020017f546f6b656e7320616c7265616479206c6f636b65640000000000000000000000815250906110eb576040517f08c379a00000000000000000000000000000000000000000000000000000000081526004018080602001828103825283818151815260200191508051906020019080838360005b838110156110b0578082015181840152602081019050611095565b50505050905090810190601f1680156110dd5780820380516001836020036101000a031916815260200191505b509250505060405180910390fd5b5060008414156040518060400160405280601381526020017f416d6f756e742063616e206e6f74206265203000000000000000000000000000815250906111cd576040517f08c379a00000000000000000000000000000000000000000000000000000000081526004018080602001828103825283818151815260200191508051906020019080838360005b83811015611192578082015181840152602081019050611177565b50505050905090810190601f1680156111bf5780820380516001836020036101000a031916815260200191505b509250505060405180910390fd5b506000600160006111dc612d7f565b73ffffffffffffffffffffffffffffffffffffffff1673ffffffffffffffffffffffffffffffffffffffff168152602001908152602001600020600087815260200190815260200160002060000154141561129e5760008061123c612d7f565b73ffffffffffffffffffffffffffffffffffffffff1673ffffffffffffffffffffffffffffffffffffffff1681526020019081526020016000208590806001815401808255809150506001900390600052602060002001600090919091909150555b6112a830856126d8565b50604051806060016040528085815260200182815260200160001515815250600160006112d3612d7f565b73ffffffffffffffffffffffffffffffffffffffff1673ffffffffffffffffffffffffffffffffffffffff1681526020019081526020016000206000878152602001908152602001600020600082015181600001556020820151816001015560408201518160020160006101000a81548160ff0219169083151502179055509050508461135e612d7f565b73ffffffffffffffffffffffffffffffffffffffff167fea90ef40963535482537f0689e05cb8d259e459ebd21530e826702294d0eafdd8684604051808381526020018281526020019250505060405180910390a360019150509392505050565b60008060008090505b6000808573ffffffffffffffffffffffffffffffffffffffff1673ffffffffffffffffffffffffffffffffffffffff168152602001908152602001600020805490508110156115fc5761146e846000808773ffffffffffffffffffffffffffffffffffffffff1673ffffffffffffffffffffffffffffffffffffffff168152602001908152602001600020838154811061145e57fe5b9060005260206000200154611e0e565b915060008211156115ef5761148c828461431390919063ffffffff16565b925060018060008673ffffffffffffffffffffffffffffffffffffffff1673ffffffffffffffffffffffffffffffffffffffff16815260200190815260200160002060008060008873ffffffffffffffffffffffffffffffffffffffff1673ffffffffffffffffffffffffffffffffffffffff168152602001908152602001600020848154811061151957fe5b9060005260206000200154815260200190815260200160002060020160006101000a81548160ff0219169083151502179055506000808573ffffffffffffffffffffffffffffffffffffffff1673ffffffffffffffffffffffffffffffffffffffff168152602001908152602001600020818154811061159557fe5b90600052602060002001548473ffffffffffffffffffffffffffffffffffffffff167f11f87fd5adcd05786919b8b868f59a70d78ae4eb6f305c5927f9c5b1659841a4846040518082815260200191505060405180910390a35b80806001019150506113c8565b5060008211156116ca573073ffffffffffffffffffffffffffffffffffffffff1663a9059cbb84846040518363ffffffff1660e01b8152600401808373ffffffffffffffffffffffffffffffffffffffff1673ffffffffffffffffffffffffffffffffffffffff16815260200182815260200192505050602060405180830381600087803b15801561168d57600080fd5b505af11580156116a1573d6000803e3d6000fd5b505050506040513d60208110156116b757600080fd5b8101908080519060200190929190505050505b50919050565b6000600760009054906101000a900460ff16905090565b60006117906116f4612d7f565b8461178b8560036000611705612d7f565b73ffffffffffffffffffffffffffffffffffffffff1673ffffffffffffffffffffffffffffffffffffffff16815260200190815260200160002060008973ffffffffffffffffffffffffffffffffffffffff1673ffffffffffffffffffffffffffffffffffffffff1681526020019081526020016000205461431390919063ffffffff16565b613d97565b6001905092915050565b6117ab6117a5612d7f565b8261439b565b50565b60006117b982611ff7565b905060008090505b6000808473ffffffffffffffffffffffffffffffffffffffff1673ffffffffffffffffffffffffffffffffffffffff168152602001908152602001600020805490508110156118885761187961186a846000808773ffffffffffffffffffffffffffffffffffffffff1673ffffffffffffffffffffffffffffffffffffffff168152602001908152602001600020848154811061185a57fe5b9060005260206000200154611f33565b8361431390919063ffffffff16565b915080806001019150506117c1565b50919050565b6000806118a4834261431390919063ffffffff16565b905060006118b28787611f33565b146040518060400160405280601581526020017f546f6b656e7320616c7265616479206c6f636b656400000000000000000000008152509061198f576040517f08c379a00000000000000000000000000000000000000000000000000000000081526004018080602001828103825283818151815260200191508051906020019080838360005b83811015611954578082015181840152602081019050611939565b50505050905090810190601f1680156119815780820380516001836020036101000a031916815260200191505b509250505060405180910390fd5b5060008414156040518060400160405280601381526020017f416d6f756e742063616e206e6f7420626520300000000000000000000000000081525090611a71576040517f08c379a00000000000000000000000000000000000000000000000000000000081526004018080602001828103825283818151815260200191508051906020019080838360005b83811015611a36578082015181840152602081019050611a1b565b50505050905090810190601f168015611a635780820380516001836020036101000a031916815260200191505b509250505060405180910390fd5b506000600160008873ffffffffffffffffffffffffffffffffffffffff1673ffffffffffffffffffffffffffffffffffffffff1681526020019081526020016000206000878152602001908152602001600020600001541415611b34576000808773ffffffffffffffffffffffffffffffffffffffff1673ffffffffffffffffffffffffffffffffffffffff1681526020019081526020016000208590806001815401808255809150506001900390600052602060002001600090919091909150555b611b3e30856126d8565b50604051806060016040528085815260200182815260200160001515815250600160008873ffffffffffffffffffffffffffffffffffffffff1673ffffffffffffffffffffffffffffffffffffffff1681526020019081526020016000206000878152602001908152602001600020600082015181600001556020820151816001015560408201518160020160006101000a81548160ff021916908315150217905550905050848673ffffffffffffffffffffffffffffffffffffffff167fea90ef40963535482537f0689e05cb8d259e459ebd21530e826702294d0eafdd8684604051808381526020018281526020019250505060405180910390a36001915050949350505050565b600760169054906101000a900460ff1680611c705750600760159054906101000a900460ff16155b611cc5576040517f08c379a000000000000000000000000000000000000000000000000000000000815260040180806020018281038252602e815260200180615803602e913960400191505060405180910390fd5b6000600760169054906101000a900460ff161590508015611d17576001600760166101000a81548160ff0219169083151502179055506001600760156101000a81548160ff0219169083151502179055505b611d1f612d7f565b73ffffffffffffffffffffffffffffffffffffffff16600760019054906101000a900473ffffffffffffffffffffffffffffffffffffffff1673ffffffffffffffffffffffffffffffffffffffff1614611de1576040517f08c379a00000000000000000000000000000000000000000000000000000000081526004018080602001828103825260208152602001807f4f776e61626c653a2063616c6c6572206973206e6f7420746865206f776e657281525060200191505060405180910390fd5b611de9614561565b8015611e0b576000600760166101000a81548160ff0219169083151502179055505b50565b600042600160008573ffffffffffffffffffffffffffffffffffffffff1673ffffffffffffffffffffffffffffffffffffffff16815260200190815260200160002060008481526020019081526020016000206001015411158015611ed15750600160008473ffffffffffffffffffffffffffffffffffffffff1673ffffffffffffffffffffffffffffffffffffffff168152602001908152602001600020600083815260200190815260200160002060020160009054906101000a900460ff16155b15611f2d57600160008473ffffffffffffffffffffffffffffffffffffffff1673ffffffffffffffffffffffffffffffffffffffff16815260200190815260200160002060008381526020019081526020016000206000015490505b92915050565b6000600160008473ffffffffffffffffffffffffffffffffffffffff1673ffffffffffffffffffffffffffffffffffffffff168152602001908152602001600020600083815260200190815260200160002060020160009054906101000a900460ff16611ff157600160008473ffffffffffffffffffffffffffffffffffffffff1673ffffffffffffffffffffffffffffffffffffffff16815260200190815260200160002060008381526020019081526020016000206000015490505b92915050565b6000600260008373ffffffffffffffffffffffffffffffffffffffff1673ffffffffffffffffffffffffffffffffffffffff168152602001908152602001600020549050919050565b612048612d7f565b73ffffffffffffffffffffffffffffffffffffffff16600760019054906101000a900473ffffffffffffffffffffffffffffffffffffffff1673ffffffffffffffffffffffffffffffffffffffff161461210a576040517f08c379a00000000000000000000000000000000000000000000000000000000081526004018080602001828103825260208152602001807f4f776e61626c653a2063616c6c6572206973206e6f7420746865206f776e657281525060200191505060405180910390fd5b600073ffffffffffffffffffffffffffffffffffffffff16600760019054906101000a900473ffffffffffffffffffffffffffffffffffffffff1673ffffffffffffffffffffffffffffffffffffffff167f8be0079c531659141344cd1fd0a4f28419497f9722a3daafe3b4186f6b6457e060405160405180910390a36000600760016101000a81548173ffffffffffffffffffffffffffffffffffffffff021916908373ffffffffffffffffffffffffffffffffffffffff160217905550565b600060205281600052604060002081815481106121e457fe5b90600052602060002001600091509150505481565b6000612238826040518060600160405280602481526020016158e86024913961222986612224612d7f565b612ae8565b6142539092919063ffffffff16565b905061224c83612246612d7f565b83613d97565b612256838361439b565b505050565b60008061226f612269612d7f565b85611f33565b116040518060400160405280601081526020017f4e6f20746f6b656e73206c6f636b6564000000000000000000000000000000008152509061234c576040517f08c379a00000000000000000000000000000000000000000000000000000000081526004018080602001828103825283818151815260200191508051906020019080838360005b838110156123115780820151818401526020810190506122f6565b50505050905090810190601f16801561233e5780820380516001836020036101000a031916815260200191505b509250505060405180910390fd5b5061235730836126d8565b506123c58260016000612368612d7f565b73ffffffffffffffffffffffffffffffffffffffff1673ffffffffffffffffffffffffffffffffffffffff16815260200190815260200160002060008681526020019081526020016000206000015461431390919063ffffffff16565b600160006123d1612d7f565b73ffffffffffffffffffffffffffffffffffffffff1673ffffffffffffffffffffffffffffffffffffffff1681526020019081526020016000206000858152602001908152602001600020600001819055508261242c612d7f565b73ffffffffffffffffffffffffffffffffffffffff167fea90ef40963535482537f0689e05cb8d259e459ebd21530e826702294d0eafdd6001600061246f612d7f565b73ffffffffffffffffffffffffffffffffffffffff1673ffffffffffffffffffffffffffffffffffffffff168152602001908152602001600020600087815260200190815260200160002060000154600160006124ca612d7f565b73ffffffffffffffffffffffffffffffffffffffff1673ffffffffffffffffffffffffffffffffffffffff168152602001908152602001600020600088815260200190815260200160002060010154604051808381526020018281526020019250505060405180910390a36001905092915050565b6000600760019054906101000a900473ffffffffffffffffffffffffffffffffffffffff16905090565b606060068054600181600116156101000203166002900480601f0160208091040260200160405190810160405280929190818152602001828054600181600116156101000203166002900480156126015780601f106125d657610100808354040283529160200191612601565b820191906000526020600020905b8154815290600101906020018083116125e457829003601f168201915b5050505050905090565b60006126ce612618612d7f565b846126c9856040518060600160405280602581526020016159a46025913960036000612642612d7f565b73ffffffffffffffffffffffffffffffffffffffff1673ffffffffffffffffffffffffffffffffffffffff16815260200190815260200160002060008a73ffffffffffffffffffffffffffffffffffffffff1673ffffffffffffffffffffffffffffffffffffffff168152602001908152602001600020546142539092919063ffffffff16565b613d97565b6001905092915050565b60006126ec6126e5612d7f565b8484613f8e565b6001905092915050565b60008061270a612704612d7f565b85611f33565b116040518060400160405280601081526020017f4e6f20746f6b656e73206c6f636b656400000000000000000000000000000000815250906127e7576040517f08c379a00000000000000000000000000000000000000000000000000000000081526004018080602001828103825283818151815260200191508051906020019080838360005b838110156127ac578082015181840152602081019050612791565b50505050905090810190601f1680156127d95780820380516001836020036101000a031916815260200191505b509250505060405180910390fd5b5061285582600160006127f8612d7f565b73ffffffffffffffffffffffffffffffffffffffff1673ffffffffffffffffffffffffffffffffffffffff16815260200190815260200160002060008681526020019081526020016000206001015461431390919063ffffffff16565b60016000612861612d7f565b73ffffffffffffffffffffffffffffffffffffffff1673ffffffffffffffffffffffffffffffffffffffff168152602001908152602001600020600085815260200190815260200160002060010181905550826128bc612d7f565b73ffffffffffffffffffffffffffffffffffffffff167fea90ef40963535482537f0689e05cb8d259e459ebd21530e826702294d0eafdd600160006128ff612d7f565b73ffffffffffffffffffffffffffffffffffffffff1673ffffffffffffffffffffffffffffffffffffffff1681526020019081526020016000206000878152602001908152602001600020600001546001600061295a612d7f565b73ffffffffffffffffffffffffffffffffffffffff1673ffffffffffffffffffffffffffffffffffffffff168152602001908152602001600020600088815260200190815260200160002060010154604051808381526020018281526020019250505060405180910390a36001905092915050565b600080600090505b6000808473ffffffffffffffffffffffffffffffffffffffff1673ffffffffffffffffffffffffffffffffffffffff16815260200190815260200160002080549050811015612a9e57612a8f612a80846000808773ffffffffffffffffffffffffffffffffffffffff1673ffffffffffffffffffffffffffffffffffffffff1681526020019081526020016000208481548110612a7057fe5b9060005260206000200154611e0e565b8361431390919063ffffffff16565b915080806001019150506129d7565b50919050565b6001602052816000526040600020602052806000526040600020600091509150508060000154908060010154908060020160009054906101000a900460ff16905083565b6000600360008473ffffffffffffffffffffffffffffffffffffffff1673ffffffffffffffffffffffffffffffffffffffff16815260200190815260200160002060008373ffffffffffffffffffffffffffffffffffffffff1673ffffffffffffffffffffffffffffffffffffffff16815260200190815260200160002054905092915050565b612b77612d7f565b73ffffffffffffffffffffffffffffffffffffffff16600760019054906101000a900473ffffffffffffffffffffffffffffffffffffffff1673ffffffffffffffffffffffffffffffffffffffff1614612c39576040517f08c379a00000000000000000000000000000000000000000000000000000000081526004018080602001828103825260208152602001807f4f776e61626c653a2063616c6c6572206973206e6f7420746865206f776e657281525060200191505060405180910390fd5b600073ffffffffffffffffffffffffffffffffffffffff168173ffffffffffffffffffffffffffffffffffffffff161415612cbf576040517f08c379a00000000000000000000000000000000000000000000000000000000081526004018080602001828103825260268152602001806158316026913960400191505060405180910390fd5b8073ffffffffffffffffffffffffffffffffffffffff16600760019054906101000a900473ffffffffffffffffffffffffffffffffffffffff1673ffffffffffffffffffffffffffffffffffffffff167f8be0079c531659141344cd1fd0a4f28419497f9722a3daafe3b4186f6b6457e060405160405180910390a380600760016101000a81548173ffffffffffffffffffffffffffffffffffffffff021916908373ffffffffffffffffffffffffffffffffffffffff16021790555050565b600033905090565b6000426360dd0580039050600062278d009050612dca7f76325f31000000000000000000000000000000000000000000000000000000006406ee758efc8461552e565b50612e0d7f76325f3200000000000000000000000000000000000000000000000000000000640711f2ca2a612e08848661431390919063ffffffff16565b61552e565b50612e637f76325f3300000000000000000000000000000000000000000000000000000000640736739952612e5e612e4f6002866156ce90919063ffffffff16565b8661431390919063ffffffff16565b61552e565b50612eb97f76325f340000000000000000000000000000000000000000000000000000000064075af4687a612eb4612ea56003866156ce90919063ffffffff16565b8661431390919063ffffffff16565b61552e565b50612f0f7f76325f350000000000000000000000000000000000000000000000000000000064078078cb9c612f0a612efb6004866156ce90919063ffffffff16565b8661431390919063ffffffff16565b61552e565b50612f657f76325f36000000000000000000000000000000000000000000000000000000006407a700c2b8612f60612f516005866156ce90919063ffffffff16565b8661431390919063ffffffff16565b61552e565b50612fbb7f76325f37000000000000000000000000000000000000000000000000000000006407ce8c4dce612fb6612fa76006866156ce90919063ffffffff16565b8661431390919063ffffffff16565b61552e565b506130117f76325f38000000000000000000000000000000000000000000000000000000006407f617d8e461300c612ffd6007866156ce90919063ffffffff16565b8661431390919063ffffffff16565b61552e565b506130677f76325f390000000000000000000000000000000000000000000000000000000064081ea6f7f46130626130536008866156ce90919063ffffffff16565b8661431390919063ffffffff16565b61552e565b506130bd7f76325f313000000000000000000000000000000000000000000000000000000064084839aafe6130b86130a96009866156ce90919063ffffffff16565b8661431390919063ffffffff16565b61552e565b506131137f76325f3131000000000000000000000000000000000000000000000000000000640872cff20261310e6130ff600a866156ce90919063ffffffff16565b8661431390919063ffffffff16565b61552e565b506131697f76325f313200000000000000000000000000000000000000000000000000000064089e69cd00613164613155600b866156ce90919063ffffffff16565b8661431390919063ffffffff16565b61552e565b506131bf7f76325f31330000000000000000000000000000000000000000000000000000006408ca03a7fe6131ba6131ab600c866156ce90919063ffffffff16565b8661431390919063ffffffff16565b61552e565b506132157f76325f31340000000000000000000000000000000000000000000000000000006408f7a4aaf0613210613201600d866156ce90919063ffffffff16565b8661431390919063ffffffff16565b61552e565b5061326b7f76325f313500000000000000000000000000000000000000000000000000000064092545ade2613266613257600e866156ce90919063ffffffff16565b8661431390919063ffffffff16565b61552e565b506132c17f76325f3136000000000000000000000000000000000000000000000000000000640953ea44ce6132bc6132ad600f866156ce90919063ffffffff16565b8661431390919063ffffffff16565b61552e565b506133177f76325f3137000000000000000000000000000000000000000000000000000000640983926fb46133126133036010866156ce90919063ffffffff16565b8661431390919063ffffffff16565b61552e565b5061336d7f76325f31380000000000000000000000000000000000000000000000000000006409b43e2e946133686133596011866156ce90919063ffffffff16565b8661431390919063ffffffff16565b61552e565b506133c37f76325f31390000000000000000000000000000000000000000000000000000006409e5ed816e6133be6133af6012866156ce90919063ffffffff16565b8661431390919063ffffffff16565b61552e565b506134197f76325f3230000000000000000000000000000000000000000000000000000000640a18a068426134146134056013866156ce90919063ffffffff16565b8661431390919063ffffffff16565b61552e565b5061346f7f76325f3231000000000000000000000000000000000000000000000000000000640a4c56e31061346a61345b6014866156ce90919063ffffffff16565b8661431390919063ffffffff16565b61552e565b506134c57f76325f3232000000000000000000000000000000000000000000000000000000640a8110f1d86134c06134b16015866156ce90919063ffffffff16565b8661431390919063ffffffff16565b61552e565b5061351b7f76325f3233000000000000000000000000000000000000000000000000000000640ab6ce949a6135166135076016866156ce90919063ffffffff16565b8661431390919063ffffffff16565b61552e565b506135717f76325f3234000000000000000000000000000000000000000000000000000000640aee935f5061356c61355d6017866156ce90919063ffffffff16565b8661431390919063ffffffff16565b61552e565b506135c77f76325f3235000000000000000000000000000000000000000000000000000000640b26582a066135c26135b36018866156ce90919063ffffffff16565b8661431390919063ffffffff16565b61552e565b5061361d7f76325f3236000000000000000000000000000000000000000000000000000000640b5f2088b66136186136096019866156ce90919063ffffffff16565b8661431390919063ffffffff16565b61552e565b506136737f76325f3237000000000000000000000000000000000000000000000000000000640b98ec7b6061366e61365f601a866156ce90919063ffffffff16565b8661431390919063ffffffff16565b61552e565b506136c97f76325f3238000000000000000000000000000000000000000000000000000000640bd4bf95fe6136c46136b5601b866156ce90919063ffffffff16565b8661431390919063ffffffff16565b61552e565b5061371f7f76325f3239000000000000000000000000000000000000000000000000000000640c1196449661371a61370b601c866156ce90919063ffffffff16565b8661431390919063ffffffff16565b61552e565b506137757f76325f3330000000000000000000000000000000000000000000000000000000640c4f708728613770613761601d866156ce90919063ffffffff16565b8661431390919063ffffffff16565b61552e565b506137cb7f76325f3331000000000000000000000000000000000000000000000000000000640c8e4e5db46137c66137b7601e866156ce90919063ffffffff16565b8661431390919063ffffffff16565b61552e565b506138217f76325f3332000000000000000000000000000000000000000000000000000000640cce2fc83a61381c61380d601f866156ce90919063ffffffff16565b8661431390919063ffffffff16565b61552e565b506138777f76325f3333000000000000000000000000000000000000000000000000000000640d10185ab46138726138636020866156ce90919063ffffffff16565b8661431390919063ffffffff16565b61552e565b506138cd7f76325f3334000000000000000000000000000000000000000000000000000000640d530481286138c86138b96021866156ce90919063ffffffff16565b8661431390919063ffffffff16565b61552e565b506139237f76325f3335000000000000000000000000000000000000000000000000000000640d96f43b9661391e61390f6022866156ce90919063ffffffff16565b8661431390919063ffffffff16565b61552e565b506139797f76325f3336000000000000000000000000000000000000000000000000000000640ddceb1df86139746139656023866156ce90919063ffffffff16565b8661431390919063ffffffff16565b61552e565b506139cf7f76325f3337000000000000000000000000000000000000000000000000000000640e23e594546139ca6139bb6024866156ce90919063ffffffff16565b8661431390919063ffffffff16565b61552e565b50613a257f76325f3338000000000000000000000000000000000000000000000000000000640e6be39eaa613a20613a116025866156ce90919063ffffffff16565b8661431390919063ffffffff16565b61552e565b50613a7b7f76325f3339000000000000000000000000000000000000000000000000000000640eb5e8d0f4613a76613a676026866156ce90919063ffffffff16565b8661431390919063ffffffff16565b61552e565b50613ad17f76325f3430000000000000000000000000000000000000000000000000000000640f00f19738613acc613abd6027866156ce90919063ffffffff16565b8661431390919063ffffffff16565b61552e565b50613b277f76325f3431000000000000000000000000000000000000000000000000000000640f4e018570613b22613b136028866156ce90919063ffffffff16565b8661431390919063ffffffff16565b61552e565b50613b7d7f76325f3432000000000000000000000000000000000000000000000000000000640f9c1507a2613b78613b696029866156ce90919063ffffffff16565b8661431390919063ffffffff16565b61552e565b50613bd37f76325f3433000000000000000000000000000000000000000000000000000000640fec2fb1c8613bce613bbf602a866156ce90919063ffffffff16565b8661431390919063ffffffff16565b61552e565b50613c297f76325f343400000000000000000000000000000000000000000000000000000064103e5183e2613c24613c15602b866156ce90919063ffffffff16565b8661431390919063ffffffff16565b61552e565b50613c7f7f76325f343500000000000000000000000000000000000000000000000000000064109176e9f6613c7a613c6b602c866156ce90919063ffffffff16565b8661431390919063ffffffff16565b61552e565b50613cd57f76325f34360000000000000000000000000000000000000000000000000000006410e59fe404613cd0613cc1602d866156ce90919063ffffffff16565b8661431390919063ffffffff16565b61552e565b50613d2b7f76325f343700000000000000000000000000000000000000000000000000000064113cd39a00613d26613d17602e866156ce90919063ffffffff16565b8661431390919063ffffffff16565b61552e565b50613d817f76325f3438000000000000000000000000000000000000000000000000000000641613e7f55c613d7c613d6d602f866156ce90919063ffffffff16565b8661431390919063ffffffff16565b61552e565b50613d923065022a84bcaec06126d8565b505050565b600073ffffffffffffffffffffffffffffffffffffffff168373ffffffffffffffffffffffffffffffffffffffff161415613e1d576040517f08c379a00000000000000000000000000000000000000000000000000000000081526004018080602001828103825260248152602001806159526024913960400191505060405180910390fd5b600073ffffffffffffffffffffffffffffffffffffffff168273ffffffffffffffffffffffffffffffffffffffff161415613ea3576040517f08c379a00000000000000000000000000000000000000000000000000000000081526004018080602001828103825260228152602001806158576022913960400191505060405180910390fd5b80600360008573ffffffffffffffffffffffffffffffffffffffff1673ffffffffffffffffffffffffffffffffffffffff16815260200190815260200160002060008473ffffffffffffffffffffffffffffffffffffffff1673ffffffffffffffffffffffffffffffffffffffff168152602001908152602001600020819055508173ffffffffffffffffffffffffffffffffffffffff168373ffffffffffffffffffffffffffffffffffffffff167f8c5be1e5ebec7d5bd14f71427d1e84f3dd0314c0f7b2291e5b200ac8c7c3b925836040518082815260200191505060405180910390a3505050565b600073ffffffffffffffffffffffffffffffffffffffff168373ffffffffffffffffffffffffffffffffffffffff161415614014576040517f08c379a000000000000000000000000000000000000000000000000000000000815260040180806020018281038252602581526020018061592d6025913960400191505060405180910390fd5b600073ffffffffffffffffffffffffffffffffffffffff168273ffffffffffffffffffffffffffffffffffffffff16141561409a576040517f08c379a00000000000000000000000000000000000000000000000000000000081526004018080602001828103825260238152602001806157be6023913960400191505060405180910390fd5b6140a5838383615754565b6141118160405180606001604052806026815260200161587960269139600260008773ffffffffffffffffffffffffffffffffffffffff1673ffffffffffffffffffffffffffffffffffffffff168152602001908152602001600020546142539092919063ffffffff16565b600260008573ffffffffffffffffffffffffffffffffffffffff1673ffffffffffffffffffffffffffffffffffffffff168152602001908152602001600020819055506141a681600260008573ffffffffffffffffffffffffffffffffffffffff1673ffffffffffffffffffffffffffffffffffffffff1681526020019081526020016000205461431390919063ffffffff16565b600260008473ffffffffffffffffffffffffffffffffffffffff1673ffffffffffffffffffffffffffffffffffffffff168152602001908152602001600020819055508173ffffffffffffffffffffffffffffffffffffffff168373ffffffffffffffffffffffffffffffffffffffff167fddf252ad1be2c89b69c2b068fc378daa952ba7f163c4a11628f55a4df523b3ef836040518082815260200191505060405180910390a3505050565b6000838311158290614300576040517f08c379a00000000000000000000000000000000000000000000000000000000081526004018080602001828103825283818151815260200191508051906020019080838360005b838110156142c55780820151818401526020810190506142aa565b50505050905090810190601f1680156142f25780820380516001836020036101000a031916815260200191505b509250505060405180910390fd5b5060008385039050809150509392505050565b600080828401905083811015614391576040517f08c379a000000000000000000000000000000000000000000000000000000000815260040180806020018281038252601b8152602001807f536166654d6174683a206164646974696f6e206f766572666c6f77000000000081525060200191505060405180910390fd5b8091505092915050565b600073ffffffffffffffffffffffffffffffffffffffff168273ffffffffffffffffffffffffffffffffffffffff161415614421576040517f08c379a000000000000000000000000000000000000000000000000000000000815260040180806020018281038252602181526020018061590c6021913960400191505060405180910390fd5b61442d82600083615754565b614499816040518060600160405280602281526020016157e160229139600260008673ffffffffffffffffffffffffffffffffffffffff1673ffffffffffffffffffffffffffffffffffffffff168152602001908152602001600020546142539092919063ffffffff16565b600260008473ffffffffffffffffffffffffffffffffffffffff1673ffffffffffffffffffffffffffffffffffffffff168152602001908152602001600020819055506144f18160045461576e90919063ffffffff16565b600481905550600073ffffffffffffffffffffffffffffffffffffffff168273ffffffffffffffffffffffffffffffffffffffff167fddf252ad1be2c89b69c2b068fc378daa952ba7f163c4a11628f55a4df523b3ef836040518082815260200191505060405180910390a35050565b6000426360650d000390506000640ee48d67e09050600062278d0090506145a97f76315f3100000000000000000000000000000000000000000000000000000000838561552e565b506145e77f76315f3200000000000000000000000000000000000000000000000000000000836145e2848761431390919063ffffffff16565b61552e565b506146387f76315f3300000000000000000000000000000000000000000000000000000000836146336146246002866156ce90919063ffffffff16565b8761431390919063ffffffff16565b61552e565b506146897f76315f3400000000000000000000000000000000000000000000000000000000836146846146756003866156ce90919063ffffffff16565b8761431390919063ffffffff16565b61552e565b506146da7f76315f3500000000000000000000000000000000000000000000000000000000836146d56146c66004866156ce90919063ffffffff16565b8761431390919063ffffffff16565b61552e565b5061472b7f76315f3600000000000000000000000000000000000000000000000000000000836147266147176005866156ce90919063ffffffff16565b8761431390919063ffffffff16565b61552e565b5061477c7f76315f3700000000000000000000000000000000000000000000000000000000836147776147686006866156ce90919063ffffffff16565b8761431390919063ffffffff16565b61552e565b506147cd7f76315f3800000000000000000000000000000000000000000000000000000000836147c86147b96007866156ce90919063ffffffff16565b8761431390919063ffffffff16565b61552e565b5061481e7f76315f39000000000000000000000000000000000000000000000000000000008361481961480a6008866156ce90919063ffffffff16565b8761431390919063ffffffff16565b61552e565b5061486f7f76315f31300000000000000000000000000000000000000000000000000000008361486a61485b6009866156ce90919063ffffffff16565b8761431390919063ffffffff16565b61552e565b506148c07f76315f3131000000000000000000000000000000000000000000000000000000836148bb6148ac600a866156ce90919063ffffffff16565b8761431390919063ffffffff16565b61552e565b506149117f76315f31320000000000000000000000000000000000000000000000000000008361490c6148fd600b866156ce90919063ffffffff16565b8761431390919063ffffffff16565b61552e565b506149627f76315f31330000000000000000000000000000000000000000000000000000008361495d61494e600c866156ce90919063ffffffff16565b8761431390919063ffffffff16565b61552e565b506149b37f76315f3134000000000000000000000000000000000000000000000000000000836149ae61499f600d866156ce90919063ffffffff16565b8761431390919063ffffffff16565b61552e565b50614a047f76315f3135000000000000000000000000000000000000000000000000000000836149ff6149f0600e866156ce90919063ffffffff16565b8761431390919063ffffffff16565b61552e565b50614a557f76315f313600000000000000000000000000000000000000000000000000000083614a50614a41600f866156ce90919063ffffffff16565b8761431390919063ffffffff16565b61552e565b50614aa67f76315f313700000000000000000000000000000000000000000000000000000083614aa1614a926010866156ce90919063ffffffff16565b8761431390919063ffffffff16565b61552e565b50614af77f76315f313800000000000000000000000000000000000000000000000000000083614af2614ae36011866156ce90919063ffffffff16565b8761431390919063ffffffff16565b61552e565b50614b487f76315f313900000000000000000000000000000000000000000000000000000083614b43614b346012866156ce90919063ffffffff16565b8761431390919063ffffffff16565b61552e565b50614b997f76315f323000000000000000000000000000000000000000000000000000000083614b94614b856013866156ce90919063ffffffff16565b8761431390919063ffffffff16565b61552e565b50614bea7f76315f323100000000000000000000000000000000000000000000000000000083614be5614bd66014866156ce90919063ffffffff16565b8761431390919063ffffffff16565b61552e565b50614c3b7f76315f323200000000000000000000000000000000000000000000000000000083614c36614c276015866156ce90919063ffffffff16565b8761431390919063ffffffff16565b61552e565b50614c8c7f76315f323300000000000000000000000000000000000000000000000000000083614c87614c786016866156ce90919063ffffffff16565b8761431390919063ffffffff16565b61552e565b50614cdd7f76315f323400000000000000000000000000000000000000000000000000000083614cd8614cc96017866156ce90919063ffffffff16565b8761431390919063ffffffff16565b61552e565b50614d2e7f76315f323500000000000000000000000000000000000000000000000000000083614d29614d1a6018866156ce90919063ffffffff16565b8761431390919063ffffffff16565b61552e565b50614d7f7f76315f323600000000000000000000000000000000000000000000000000000083614d7a614d6b6019866156ce90919063ffffffff16565b8761431390919063ffffffff16565b61552e565b50614dd07f76315f323700000000000000000000000000000000000000000000000000000083614dcb614dbc601a866156ce90919063ffffffff16565b8761431390919063ffffffff16565b61552e565b50614e217f76315f323800000000000000000000000000000000000000000000000000000083614e1c614e0d601b866156ce90919063ffffffff16565b8761431390919063ffffffff16565b61552e565b50614e727f76315f323900000000000000000000000000000000000000000000000000000083614e6d614e5e601c866156ce90919063ffffffff16565b8761431390919063ffffffff16565b61552e565b50614ec37f76315f333000000000000000000000000000000000000000000000000000000083614ebe614eaf601d866156ce90919063ffffffff16565b8761431390919063ffffffff16565b61552e565b50614f147f76315f333100000000000000000000000000000000000000000000000000000083614f0f614f00601e866156ce90919063ffffffff16565b8761431390919063ffffffff16565b61552e565b50614f657f76315f333200000000000000000000000000000000000000000000000000000083614f60614f51601f866156ce90919063ffffffff16565b8761431390919063ffffffff16565b61552e565b50614fb67f76315f333300000000000000000000000000000000000000000000000000000083614fb1614fa26020866156ce90919063ffffffff16565b8761431390919063ffffffff16565b61552e565b506150077f76315f333400000000000000000000000000000000000000000000000000000083615002614ff36021866156ce90919063ffffffff16565b8761431390919063ffffffff16565b61552e565b506150587f76315f3335000000000000000000000000000000000000000000000000000000836150536150446022866156ce90919063ffffffff16565b8761431390919063ffffffff16565b61552e565b506150a97f76315f3336000000000000000000000000000000000000000000000000000000836150a46150956023866156ce90919063ffffffff16565b8761431390919063ffffffff16565b61552e565b506150fa7f76315f3337000000000000000000000000000000000000000000000000000000836150f56150e66024866156ce90919063ffffffff16565b8761431390919063ffffffff16565b61552e565b5061514b7f76315f3338000000000000000000000000000000000000000000000000000000836151466151376025866156ce90919063ffffffff16565b8761431390919063ffffffff16565b61552e565b5061519c7f76315f3339000000000000000000000000000000000000000000000000000000836151976151886026866156ce90919063ffffffff16565b8761431390919063ffffffff16565b61552e565b506151ed7f76315f3430000000000000000000000000000000000000000000000000000000836151e86151d96027866156ce90919063ffffffff16565b8761431390919063ffffffff16565b61552e565b5061523e7f76315f34310000000000000000000000000000000000000000000000000000008361523961522a6028866156ce90919063ffffffff16565b8761431390919063ffffffff16565b61552e565b5061528f7f76315f34320000000000000000000000000000000000000000000000000000008361528a61527b6029866156ce90919063ffffffff16565b8761431390919063ffffffff16565b61552e565b506152e07f76315f3433000000000000000000000000000000000000000000000000000000836152db6152cc602a866156ce90919063ffffffff16565b8761431390919063ffffffff16565b61552e565b506153317f76315f34340000000000000000000000000000000000000000000000000000008361532c61531d602b866156ce90919063ffffffff16565b8761431390919063ffffffff16565b61552e565b506153827f76315f34350000000000000000000000000000000000000000000000000000008361537d61536e602c866156ce90919063ffffffff16565b8761431390919063ffffffff16565b61552e565b506153d37f76315f3436000000000000000000000000000000000000000000000000000000836153ce6153bf602d866156ce90919063ffffffff16565b8761431390919063ffffffff16565b61552e565b506154247f76315f34370000000000000000000000000000000000000000000000000000008361541f615410602e866156ce90919063ffffffff16565b8761431390919063ffffffff16565b61552e565b506154757f76315f343800000000000000000000000000000000000000000000000000000083615470615461602f866156ce90919063ffffffff16565b8761431390919063ffffffff16565b61552e565b506154c67f76315f3439000000000000000000000000000000000000000000000000000000836154c16154b26030866156ce90919063ffffffff16565b8761431390919063ffffffff16565b61552e565b506155177f76315f3530000000000000000000000000000000000000000000000000000000836155126155036031866156ce90919063ffffffff16565b8761431390919063ffffffff16565b61552e565b50615528306502e8a39e49c06126d8565b50505050565b600080615544834261431390919063ffffffff16565b9050600060016000615554612d7f565b73ffffffffffffffffffffffffffffffffffffffff1673ffffffffffffffffffffffffffffffffffffffff1681526020019081526020016000206000878152602001908152602001600020600001541415615616576000806155b4612d7f565b73ffffffffffffffffffffffffffffffffffffffff1673ffffffffffffffffffffffffffffffffffffffff1681526020019081526020016000208590806001815401808255809150506001900390600052602060002001600090919091909150555b60405180606001604052808581526020018281526020016000151581525060016000615640612d7f565b73ffffffffffffffffffffffffffffffffffffffff1673ffffffffffffffffffffffffffffffffffffffff1681526020019081526020016000206000878152602001908152602001600020600082015181600001556020820151816001015560408201518160020160006101000a81548160ff02191690831515021790555090505060019150509392505050565b6000808314156156e1576000905061574e565b60008284029050828482816156f257fe5b0414615749576040517f08c379a000000000000000000000000000000000000000000000000000000000815260040180806020018281038252602181526020018061589f6021913960400191505060405180910390fd5b809150505b92915050565b61575f8383836157b8565b615768836113bf565b50505050565b60006157b083836040518060400160405280601e81526020017f536166654d6174683a207375627472616374696f6e206f766572666c6f770000815250614253565b905092915050565b50505056fe45524332303a207472616e7366657220746f20746865207a65726f206164647265737345524332303a206275726e20616d6f756e7420657863656564732062616c616e6365496e697469616c697a657252313a20636f6e747261637420697320616c726561647920696e697469616c697a65644f776e61626c653a206e6577206f776e657220697320746865207a65726f206164647265737345524332303a20617070726f766520746f20746865207a65726f206164647265737345524332303a207472616e7366657220616d6f756e7420657863656564732062616c616e6365536166654d6174683a206d756c7469706c69636174696f6e206f766572666c6f7745524332303a207472616e7366657220616d6f756e74206578636565647320616c6c6f77616e636545524332303a206275726e20616d6f756e74206578636565647320616c6c6f77616e636545524332303a206275726e2066726f6d20746865207a65726f206164647265737345524332303a207472616e736665722066726f6d20746865207a65726f206164647265737345524332303a20617070726f76652066726f6d20746865207a65726f2061646472657373496e697469616c697a657252323a20636f6e747261637420697320616c726561647920696e697469616c697a656445524332303a2064656372656173656420616c6c6f77616e63652062656c6f77207a65726fa2646970667358221220615d6a98270174fdc391199ea4aa92c6b15be96c3171caf8794c90d0d196332a64736f6c63430006020033",
  "source": "// SPDX-License-Identifier: MIT\r\npragma solidity >=0.4.22 <0.8.0;\r\nimport \"../contracts/LockableToken.sol\";\r\nimport \"@openzeppelin/contracts/math/SafeMath.sol\";\r\nimport \"@openzeppelin/contracts/access/Ownable.sol\";\r\n\r\ncontract FLyToken is LockableToken, Ownable {\r\n\r\n    /**\r\n     * @dev Indicates that the contract has been initialized with locked tokens for round 1.\r\n     */\r\n    bool private _initializedRound1;\r\n\r\n    /**\r\n     * @dev Indicates that the contract is in the process of being initialized for round 1.\r\n     */\r\n    bool private _initializingRound1;\r\n\r\n    /**\r\n     * @dev Indicates that the contract has been initialized with locked tokens for round 2.\r\n     */\r\n    bool private _initializedRound2;\r\n\r\n    /**\r\n     * @dev Indicates that the contract is in the process of being initialized for round 2.\r\n     */\r\n    bool private _initializingRound2;\r\n\r\n    constructor() public LockableToken(17011706000000, \"Franklin\", \"FLy\", 4) {\r\n    }\r\n\r\n    function initializeRound1() public initializerR1 onlyOwner  {\r\n        _initRound1();\r\n    }\r\n\r\n    function initializeRound2() public initializerR2 onlyOwner  {\r\n        _initRound2();\r\n    }\r\n\r\n    function _initRound1() internal   {\r\n        uint256 vestingRound1Seconds = 1617235200 - now;\r\n        uint256 vrAmount = 63964014560;\r\n        uint256 days30 = 2592000;\r\n        //round 1\r\n        _lock('v1_1', vrAmount, vestingRound1Seconds);\r\n        _lock('v1_2', vrAmount, vestingRound1Seconds.add(days30));\r\n        _lock('v1_3', vrAmount, vestingRound1Seconds.add(days30.mul(2)));\r\n        _lock('v1_4', vrAmount, vestingRound1Seconds.add(days30.mul(3)));\r\n        _lock('v1_5', vrAmount, vestingRound1Seconds.add(days30.mul(4)));\r\n        _lock('v1_6', vrAmount, vestingRound1Seconds.add(days30.mul(5)));\r\n        _lock('v1_7', vrAmount, vestingRound1Seconds.add(days30.mul(6)));\r\n        _lock('v1_8', vrAmount, vestingRound1Seconds.add(days30.mul(7)));\r\n        _lock('v1_9', vrAmount, vestingRound1Seconds.add(days30.mul(8)));\r\n        _lock('v1_10', vrAmount, vestingRound1Seconds.add(days30.mul(9)));\r\n        _lock('v1_11', vrAmount, vestingRound1Seconds.add(days30.mul(10)));\r\n        _lock('v1_12', vrAmount, vestingRound1Seconds.add(days30.mul(11)));\r\n        _lock('v1_13', vrAmount, vestingRound1Seconds.add(days30.mul(12)));\r\n        _lock('v1_14', vrAmount, vestingRound1Seconds.add(days30.mul(13)));\r\n        _lock('v1_15', vrAmount, vestingRound1Seconds.add(days30.mul(14)));\r\n        _lock('v1_16', vrAmount, vestingRound1Seconds.add(days30.mul(15)));\r\n        _lock('v1_17', vrAmount, vestingRound1Seconds.add(days30.mul(16)));\r\n        _lock('v1_18', vrAmount, vestingRound1Seconds.add(days30.mul(17)));\r\n        _lock('v1_19', vrAmount, vestingRound1Seconds.add(days30.mul(18)));\r\n        _lock('v1_20', vrAmount, vestingRound1Seconds.add(days30.mul(19)));\r\n        _lock('v1_21', vrAmount, vestingRound1Seconds.add(days30.mul(20)));\r\n        _lock('v1_22', vrAmount, vestingRound1Seconds.add(days30.mul(21)));\r\n        _lock('v1_23', vrAmount, vestingRound1Seconds.add(days30.mul(22)));\r\n        _lock('v1_24', vrAmount, vestingRound1Seconds.add(days30.mul(23)));\r\n        _lock('v1_25', vrAmount, vestingRound1Seconds.add(days30.mul(24)));\r\n        _lock('v1_26', vrAmount, vestingRound1Seconds.add(days30.mul(25)));\r\n        _lock('v1_27', vrAmount, vestingRound1Seconds.add(days30.mul(26)));\r\n        _lock('v1_28', vrAmount, vestingRound1Seconds.add(days30.mul(27)));\r\n        _lock('v1_29', vrAmount, vestingRound1Seconds.add(days30.mul(28)));\r\n        _lock('v1_30', vrAmount, vestingRound1Seconds.add(days30.mul(29)));\r\n        _lock('v1_31', vrAmount, vestingRound1Seconds.add(days30.mul(30)));\r\n        _lock('v1_32', vrAmount, vestingRound1Seconds.add(days30.mul(31)));\r\n        _lock('v1_33', vrAmount, vestingRound1Seconds.add(days30.mul(32)));\r\n        _lock('v1_34', vrAmount, vestingRound1Seconds.add(days30.mul(33)));\r\n        _lock('v1_35', vrAmount, vestingRound1Seconds.add(days30.mul(34)));\r\n        _lock('v1_36', vrAmount, vestingRound1Seconds.add(days30.mul(35)));\r\n        _lock('v1_37', vrAmount, vestingRound1Seconds.add(days30.mul(36)));\r\n        _lock('v1_38', vrAmount, vestingRound1Seconds.add(days30.mul(37)));\r\n        _lock('v1_39', vrAmount, vestingRound1Seconds.add(days30.mul(38)));\r\n        _lock('v1_40', vrAmount, vestingRound1Seconds.add(days30.mul(39)));\r\n        _lock('v1_41', vrAmount, vestingRound1Seconds.add(days30.mul(40)));\r\n        _lock('v1_42', vrAmount, vestingRound1Seconds.add(days30.mul(41)));\r\n        _lock('v1_43', vrAmount, vestingRound1Seconds.add(days30.mul(42)));\r\n        _lock('v1_44', vrAmount, vestingRound1Seconds.add(days30.mul(43)));\r\n        _lock('v1_45', vrAmount, vestingRound1Seconds.add(days30.mul(44)));\r\n        _lock('v1_46', vrAmount, vestingRound1Seconds.add(days30.mul(45)));\r\n        _lock('v1_47', vrAmount, vestingRound1Seconds.add(days30.mul(46)));\r\n        _lock('v1_48', vrAmount, vestingRound1Seconds.add(days30.mul(47)));\r\n        _lock('v1_49', vrAmount, vestingRound1Seconds.add(days30.mul(48)));\r\n        _lock('v1_50', vrAmount, vestingRound1Seconds.add(days30.mul(49)));\r\n        //round 1: transfer locked total \r\n        transfer(address(this), 3198200728000);\r\n    }\r\n\r\n    function _initRound2() internal   {\r\n        uint256 vestingRound2Seconds = 1625097600 - now;\r\n        uint256 days30 = 2592000;\r\n        // round 2 - starting from 01.07.2021 - autogenerated from excel output\r\n        _lock('v2_1', 29770485500, vestingRound2Seconds);\r\n        _lock('v2_2', 30365895210, vestingRound2Seconds.add(days30));\r\n        _lock('v2_3', 30978316626, vestingRound2Seconds.add(days30.mul(2)));\r\n        _lock('v2_4', 31590738042, vestingRound2Seconds.add(days30.mul(3)));\r\n        _lock('v2_5', 32220171164, vestingRound2Seconds.add(days30.mul(4)));\r\n        _lock('v2_6', 32866615992, vestingRound2Seconds.add(days30.mul(5)));\r\n        _lock('v2_7', 33530072526, vestingRound2Seconds.add(days30.mul(6)));\r\n        _lock('v2_8', 34193529060, vestingRound2Seconds.add(days30.mul(7)));\r\n        _lock('v2_9', 34873997300, vestingRound2Seconds.add(days30.mul(8)));\r\n        _lock('v2_10', 35571477246, vestingRound2Seconds.add(days30.mul(9)));\r\n        _lock('v2_11', 36285968898, vestingRound2Seconds.add(days30.mul(10)));\r\n        _lock('v2_12', 37017472256, vestingRound2Seconds.add(days30.mul(11)));\r\n        _lock('v2_13', 37748975614, vestingRound2Seconds.add(days30.mul(12)));\r\n        _lock('v2_14', 38514502384, vestingRound2Seconds.add(days30.mul(13)));\r\n        _lock('v2_15', 39280029154, vestingRound2Seconds.add(days30.mul(14)));\r\n        _lock('v2_16', 40062567630, vestingRound2Seconds.add(days30.mul(15)));\r\n        _lock('v2_17', 40862117812, vestingRound2Seconds.add(days30.mul(16)));\r\n        _lock('v2_18', 41678679700, vestingRound2Seconds.add(days30.mul(17)));\r\n        _lock('v2_19', 42512253294, vestingRound2Seconds.add(days30.mul(18)));\r\n        _lock('v2_20', 43362838594, vestingRound2Seconds.add(days30.mul(19)));\r\n        _lock('v2_21', 44230435600, vestingRound2Seconds.add(days30.mul(20)));\r\n        _lock('v2_22', 45115044312, vestingRound2Seconds.add(days30.mul(21)));\r\n        _lock('v2_23', 46016664730, vestingRound2Seconds.add(days30.mul(22)));\r\n        _lock('v2_24', 46952308560, vestingRound2Seconds.add(days30.mul(23)));\r\n        _lock('v2_25', 47887952390, vestingRound2Seconds.add(days30.mul(24)));\r\n        _lock('v2_26', 48840607926, vestingRound2Seconds.add(days30.mul(25)));\r\n        _lock('v2_27', 49810275168, vestingRound2Seconds.add(days30.mul(26)));\r\n        _lock('v2_28', 50813965822, vestingRound2Seconds.add(days30.mul(27)));\r\n        _lock('v2_29', 51834668182, vestingRound2Seconds.add(days30.mul(28)));\r\n        _lock('v2_30', 52872382248, vestingRound2Seconds.add(days30.mul(29)));\r\n        _lock('v2_31', 53927108020, vestingRound2Seconds.add(days30.mul(30)));\r\n        _lock('v2_32', 54998845498, vestingRound2Seconds.add(days30.mul(31)));\r\n        _lock('v2_33', 56104606388, vestingRound2Seconds.add(days30.mul(32)));\r\n        _lock('v2_34', 57227378984, vestingRound2Seconds.add(days30.mul(33)));\r\n        _lock('v2_35', 58367163286, vestingRound2Seconds.add(days30.mul(34)));\r\n        _lock('v2_36', 59540971000, vestingRound2Seconds.add(days30.mul(35)));\r\n        _lock('v2_37', 60731790420, vestingRound2Seconds.add(days30.mul(36)));\r\n        _lock('v2_38', 61939621546, vestingRound2Seconds.add(days30.mul(37)));\r\n        _lock('v2_39', 63181476084, vestingRound2Seconds.add(days30.mul(38)));\r\n        _lock('v2_40', 64440342328, vestingRound2Seconds.add(days30.mul(39)));\r\n        _lock('v2_41', 65733231984, vestingRound2Seconds.add(days30.mul(40)));\r\n        _lock('v2_42', 67043133346, vestingRound2Seconds.add(days30.mul(41)));\r\n        _lock('v2_43', 68387058120, vestingRound2Seconds.add(days30.mul(42)));\r\n        _lock('v2_44', 69765006306, vestingRound2Seconds.add(days30.mul(43)));\r\n        _lock('v2_45', 71159966198, vestingRound2Seconds.add(days30.mul(44)));\r\n        _lock('v2_46', 72571937796, vestingRound2Seconds.add(days30.mul(45)));\r\n        _lock('v2_47', 74034944512, vestingRound2Seconds.add(days30.mul(46)));\r\n        _lock('v2_48', 94823249244, vestingRound2Seconds.add(days30.mul(47)));\r\n        //round 2: transfer locked total \r\n        transfer(address(this), 2381638840000);\r\n    }\r\n\r\n    function _lock(\r\n        bytes32 _reason,\r\n        uint256 _amount,\r\n        uint256 _time\r\n    ) internal returns (bool) {\r\n        uint256 validUntil = now.add(_time); //solhint-disable-line\r\n        if (locked[_msgSender()][_reason].amount == 0)\r\n            lockReason[_msgSender()].push(_reason);\r\n        locked[_msgSender()][_reason] = lockToken(_amount, validUntil, false);\r\n        return true;\r\n    }\r\n\r\n\r\n    function _beforeTokenTransfer(address from, address to, uint256 amount) internal virtual override {\r\n        super._beforeTokenTransfer(from, to, amount);\r\n        unlock(from);\r\n    }\r\n\r\n    /**\r\n    * @dev Modifier to protect an initializer function from being invoked twice.\r\n    */\r\n    modifier initializerR1() {\r\n        require(_initializingRound1 || !_initializedRound1, \"InitializerR1: contract is already initialized\");\r\n\r\n        bool isTopLevelCall = !_initializingRound1;\r\n        if (isTopLevelCall) {\r\n            _initializingRound1 = true;\r\n            _initializedRound1 = true;\r\n        }\r\n\r\n        _;\r\n\r\n        if (isTopLevelCall) {\r\n            _initializingRound1 = false;\r\n        }\r\n    }\r\n\r\n    /**\r\n    * @dev Modifier to protect an initializer function from being invoked twice.\r\n    */\r\n    modifier initializerR2() {\r\n        require(_initializingRound2 || !_initializedRound2, \"InitializerR2: contract is already initialized\");\r\n\r\n        bool isTopLevelCall = !_initializingRound2;\r\n        if (isTopLevelCall) {\r\n            _initializingRound2 = true;\r\n            _initializedRound2 = true;\r\n        }\r\n\r\n        _;\r\n\r\n        if (isTopLevelCall) {\r\n            _initializingRound2 = false;\r\n        }\r\n    }\r\n}\r\n",
  "sourcePath": "D:/repos/smart-contracts/Franklin/Fly-token/contracts/FLyToken.sol",
  "compiler": {
    "name": "solc",
    "version": "0.6.2+commit.bacdbe57.Emscripten.clang"
  },
  "schemaVersion": "3.3.2",
  "updatedAt": "2021-01-16T13:27:32.808Z",
  "networkType": "ethereum",
  "devdoc": {
    "methods": {
      "allowance(address,address)": {
        "details": "See {IERC20-allowance}."
      },
      "approve(address,uint256)": {
        "details": "See {IERC20-approve}.     * Requirements:     * - `spender` cannot be the zero address."
      },
      "balanceOf(address)": {
        "details": "See {IERC20-balanceOf}."
      },
      "burn(uint256)": {
        "details": "Destroys `amount` tokens from the caller.     * See {ERC20-_burn}."
      },
      "burnFrom(address,uint256)": {
        "details": "Destroys `amount` tokens from `account`, deducting from the caller's allowance.     * See {ERC20-_burn} and {ERC20-allowance}.     * Requirements:     * - the caller must have allowance for ``accounts``'s tokens of at least `amount`."
      },
      "decimals()": {
        "details": "Returns the number of decimals used to get its user representation. For example, if `decimals` equals `2`, a balance of `505` tokens should be displayed to a user as `5,05` (`505 / 10 ** 2`).     * Tokens usually opt for a value of 18, imitating the relationship between Ether and Wei. This is the value {ERC20} uses, unless {_setupDecimals} is called.     * NOTE: This information is only used for _display_ purposes: it in no way affects any of the arithmetic of the contract, including {IERC20-balanceOf} and {IERC20-transfer}."
      },
      "decreaseAllowance(address,uint256)": {
        "details": "Atomically decreases the allowance granted to `spender` by the caller.     * This is an alternative to {approve} that can be used as a mitigation for problems described in {IERC20-approve}.     * Emits an {Approval} event indicating the updated allowance.     * Requirements:     * - `spender` cannot be the zero address. - `spender` must have allowance for the caller of at least `subtractedValue`."
      },
      "extendLock(bytes32,uint256)": {
        "details": "Extends lock for a specified reason and time",
        "params": {
          "_reason": "The reason to lock tokens",
          "_time": "Lock extension time in seconds"
        }
      },
      "getUnlockableTokens(address)": {
        "details": "Gets the unlockable tokens of a specified address",
        "params": {
          "_of": "The address to query the the unlockable token count of"
        }
      },
      "increaseAllowance(address,uint256)": {
        "details": "Atomically increases the allowance granted to `spender` by the caller.     * This is an alternative to {approve} that can be used as a mitigation for problems described in {IERC20-approve}.     * Emits an {Approval} event indicating the updated allowance.     * Requirements:     * - `spender` cannot be the zero address."
      },
      "increaseLockAmount(bytes32,uint256)": {
        "details": "Increase number of tokens locked for a specified reason",
        "params": {
          "_amount": "Number of tokens to be increased",
          "_reason": "The reason to lock tokens"
        }
      },
      "lock(bytes32,uint256,uint256)": {
        "details": "Locks a specified amount of tokens against an address,     for a specified reason and time",
        "params": {
          "_amount": "Number of tokens to be locked",
          "_reason": "The reason to lock tokens",
          "_time": "Lock time in seconds"
        }
      },
      "name()": {
        "details": "Returns the name of the token."
      },
      "owner()": {
        "details": "Returns the address of the current owner."
      },
      "renounceOwnership()": {
        "details": "Leaves the contract without owner. It will not be possible to call `onlyOwner` functions anymore. Can only be called by the current owner.     * NOTE: Renouncing ownership will leave the contract without an owner, thereby removing any functionality that is only available to the owner."
      },
      "symbol()": {
        "details": "Returns the symbol of the token, usually a shorter version of the name."
      },
      "tokensLocked(address,bytes32)": {
        "details": "Returns tokens locked for a specified address for a     specified reason ",
        "params": {
          "_of": "The address whose tokens are locked",
          "_reason": "The reason to query the lock tokens for"
        }
      },
      "tokensLockedAtTime(address,bytes32,uint256)": {
        "details": "Returns tokens locked for a specified address for a     specified reason at a specific time ",
        "params": {
          "_of": "The address whose tokens are locked",
          "_reason": "The reason to query the lock tokens for",
          "_time": "The timestamp to query the lock tokens for"
        }
      },
      "tokensUnlockable(address,bytes32)": {
        "details": "Returns unlockable tokens for a specified address for a specified reason",
        "params": {
          "_of": "The address to query the the unlockable token count of",
          "_reason": "The reason to query the unlockable tokens for"
        }
      },
      "totalBalanceOf(address)": {
        "details": "Returns total tokens held by an address (locked + transferable)",
        "params": {
          "_of": "The address to query the total balance of"
        }
      },
      "totalSupply()": {
        "details": "See {IERC20-totalSupply}."
      },
      "transfer(address,uint256)": {
        "details": "See {IERC20-transfer}.     * Requirements:     * - `recipient` cannot be the zero address. - the caller must have a balance of at least `amount`."
      },
      "transferFrom(address,address,uint256)": {
        "details": "See {IERC20-transferFrom}.     * Emits an {Approval} event indicating the updated allowance. This is not required by the EIP. See the note at the beginning of {ERC20};     * Requirements: - `sender` and `recipient` cannot be the zero address. - `sender` must have a balance of at least `amount`. - the caller must have allowance for ``sender``'s tokens of at least `amount`."
      },
      "transferOwnership(address)": {
        "details": "Transfers ownership of the contract to a new account (`newOwner`). Can only be called by the current owner."
      },
      "transferWithLock(address,bytes32,uint256,uint256)": {
        "details": "Transfers and Locks a specified amount of tokens,     for a specified reason and time",
        "params": {
          "_amount": "Number of tokens to be transfered and locked",
          "_reason": "The reason to lock tokens",
          "_time": "Lock time in seconds",
          "_to": "adress to which tokens are to be transfered"
        }
      },
      "unlock(address)": {
        "details": "Unlocks the unlockable tokens of a specified address",
        "params": {
          "_of": "Address of user, claiming back unlockable tokens"
        }
      }
    }
  },
  "userdoc": {
    "methods": {}
  }
}